{
  "contractName": "HashBlock",
  "abi": [
    {
      "inputs": [],
      "payable": false,
      "stateMutability": "nonpayable",
      "type": "constructor"
    },
    {
      "constant": true,
      "inputs": [],
      "name": "criador",
      "outputs": [
        {
          "internalType": "address",
          "name": "",
          "type": "address"
        }
      ],
      "payable": false,
      "stateMutability": "view",
      "type": "function"
    },
    {
      "constant": true,
      "inputs": [],
      "name": "hash",
      "outputs": [
        {
          "internalType": "string",
          "name": "",
          "type": "string"
        }
      ],
      "payable": false,
      "stateMutability": "view",
      "type": "function"
    },
    {
      "constant": true,
      "inputs": [],
      "name": "nome",
      "outputs": [
        {
          "internalType": "string",
          "name": "",
          "type": "string"
        }
      ],
      "payable": false,
      "stateMutability": "view",
      "type": "function"
    }
  ],
  "bytecode": "0x608060405234801561001057600080fd5b506040518060400160405280602081526020017f62313061386462313634653037353431303562376139396265373265336665358152506000908051906020019061005c9291906100ef565b5033600160006101000a81548173ffffffffffffffffffffffffffffffffffffffff021916908373ffffffffffffffffffffffffffffffffffffffff1602179055506040518060400160405280600f81526020017f50524f4a45544f2046494e414c20320000000000000000000000000000000000815250600290805190602001906100e99291906100ef565b50610194565b828054600181600116156101000203166002900490600052602060002090601f016020900481019282601f1061013057805160ff191683800117855561015e565b8280016001018555821561015e579182015b8281111561015d578251825591602001919060010190610142565b5b50905061016b919061016f565b5090565b61019191905b8082111561018d576000816000905550600101610175565b5090565b90565b61032d806101a36000396000f3fe608060405234801561001057600080fd5b50600436106100415760003560e01c8063041c797c1461004657806309bd5a60146100905780632deb124b14610113575b600080fd5b61004e610196565b604051808273ffffffffffffffffffffffffffffffffffffffff1673ffffffffffffffffffffffffffffffffffffffff16815260200191505060405180910390f35b6100986101bc565b6040518080602001828103825283818151815260200191508051906020019080838360005b838110156100d85780820151818401526020810190506100bd565b50505050905090810190601f1680156101055780820380516001836020036101000a031916815260200191505b509250505060405180910390f35b61011b61025a565b6040518080602001828103825283818151815260200191508051906020019080838360005b8381101561015b578082015181840152602081019050610140565b50505050905090810190601f1680156101885780820380516001836020036101000a031916815260200191505b509250505060405180910390f35b600160009054906101000a900473ffffffffffffffffffffffffffffffffffffffff1681565b60008054600181600116156101000203166002900480601f0160208091040260200160405190810160405280929190818152602001828054600181600116156101000203166002900480156102525780601f1061022757610100808354040283529160200191610252565b820191906000526020600020905b81548152906001019060200180831161023557829003601f168201915b505050505081565b60028054600181600116156101000203166002900480601f0160208091040260200160405190810160405280929190818152602001828054600181600116156101000203166002900480156102f05780601f106102c5576101008083540402835291602001916102f0565b820191906000526020600020905b8154815290600101906020018083116102d357829003601f168201915b50505050508156fea265627a7a72315820b290306ba738890ffc83a36be0c30c2af34dfe4e97e29edf4b6d153c6255cfe764736f6c63430005100032",
  "source": "//DESENVOLVIDO PARA O PROJETO FINAL DO CURSO SUPERIOR EM TECNOLOGIA DA SEGURANÇA DA INFORMAÇÃO DA UNISINOS\r\n// SPDX-License-Identifier: MIT\r\npragma solidity ^0.5.16;\r\n\r\ncontract HashBlock {\r\n    string public hash;\r\n    address public criador;\r\n    string public nome; \r\n\r\n    // Função para submeter o hash\r\n    constructor() public {\r\n        hash = \"b10a8db164e0754105b7a99be72e3fe5\";\r\n        criador = msg.sender;\r\n        nome = \"PROJETO FINAL 2\";\r\n    }\r\n}",
  "sourcePath": "C:\\Users\\Gustavo Lago\\Documents\\NodeProjects\\Testes\\EthDemo\\contracts\\hashBlock.sol",
  "compiler": {
    "name": "solc",
    "version": "0.5.16+commit.9c3226ce.Emscripten.clang"
  },
  "schemaVersion": "3.4.16",
  "updatedAt": "2023-11-18T01:37:34.968Z",
  "networkType": "ethereum",
  "devdoc": {
    "methods": {}
  },
  "userdoc": {
    "methods": {}
  }
}