{
    "contractName": "HashBlock",
    "abi": [
        {
            "inputs": [],
            "payable": false,
            "stateMutability": "nonpayable",
            "type": "constructor"
        },
        {
            "constant": true,
            "inputs": [],
            "name": "criador",
            "outputs": [
                {
                    "internalType": "address",
                    "name": "",
                    "type": "address"
                }
            ],
            "payable": false,
            "stateMutability": "view",
            "type": "function"
        },
        {
            "constant": true,
            "inputs": [],
            "name": "hash",
            "outputs": [
                {
                    "internalType": "string",
                    "name": "",
                    "type": "string"
                }
            ],
            "payable": false,
            "stateMutability": "view",
            "type": "function"
        },
        {
            "constant": true,
            "inputs": [],
            "name": "nome",
            "outputs": [
                {
                    "internalType": "string",
                    "name": "",
                    "type": "string"
                }
            ],
            "payable": false,
            "stateMutability": "view",
            "type": "function"
        }
    ],
    "bytecode": "608060405234801561001057600080fd5b506040805180820190915260208082527f6231306138646231363465303735343130356237613939626537326533666535918101918252610053916000916100a2565b50600180546001600160a01b0319163317905560408051808201909152600f8082526e282927a522aa27902324a720a6101960891b602090920191825261009c916002916100a2565b5061013d565b828054600181600116156101000203166002900490600052602060002090601f016020900481019282601f106100e357805160ff1916838001178555610110565b82800160010185558215610110579182015b828111156101105782518255916020019190600101906100f5565b5061011c929150610120565b5090565b61013a91905b8082111561011c5760008155600101610126565b90565b6102198061014c6000396000f3fe608060405234801561001057600080fd5b50600436106100415760003560e01c8063041c797c1461004657806309bd5a601461006a5780632deb124b146100e7575b600080fd5b61004e6100ef565b604080516001600160a01b039092168252519081900360200190f35b6100726100fe565b6040805160208082528351818301528351919283929083019185019080838360005b838110156100ac578181015183820152602001610094565b50505050905090810190601f1680156100d95780820380516001836020036101000a031916815260200191505b509250505060405180910390f35b61007261018c565b6001546001600160a01b031681565b6000805460408051602060026001851615610100026000190190941693909304601f810184900484028201840190925281815292918301828280156101845780601f1061015957610100808354040283529160200191610184565b820191906000526020600020905b81548152906001019060200180831161016757829003601f168201915b505050505081565b6002805460408051602060018416156101000260001901909316849004601f810184900484028201840190925281815292918301828280156101845780601f106101595761010080835404028352916020019161018456fea265627a7a72315820f0dab21d4c60ee86176f13590f074f910df856969ffccd045856add2e34be30f64736f6c63430005100032",
    "sourcePath": "c:/Users/Gustavo Lago/Documents/NodeProjects/Testes/EthDemo/contracts/hashBlock.sol",
    "compiler": {
        "name": "solc",
        "version": "0.5.16+commit.9c3226ce"
    },
    "functionHashes": {
        "criador()": "041c797c",
        "hash()": "09bd5a60",
        "nome()": "2deb124b"
    },
    "gasEstimates": {
        "creation": {
            "codeDepositCost": "107400",
            "executionCost": "infinite",
            "totalCost": "infinite"
        },
        "external": {
            "criador()": "1015",
            "hash()": "infinite",
            "nome()": "infinite"
        }
    }
}